:100000000C9434000C9451000C9451000C94510049
:100010000C9451000C9451000C9451000C9451001C
:100020000C9451000C9451000C9451000C9451000C
:100030000C9451000C9425010C9451000C94510027
:100040000C9451000C9451000C94B7010C94E201F3
:100050000C9451000C9451000C9451000C945100DC
:100060000C9451000C94510011241FBECFEFD8E026
:10007000DEBFCDBF11E0A0E0B1E0E8EAFEE002C0E3
:1000800005900D92A03FB107D9F724E0A0EFB1E0B1
:1000900001C01D92A838B207E1F70E94B1030C9489
:1000A00052070C94000080910001909101011816F4
:1000B00019065CF00E9470020E94770286E090E0D0
:1000C000909301018093000106C0039724F482E01D
:1000D00091E00E946E0280910001909101010197D0
:1000E00090930101809300010895CF93DF930E94C4
:1000F0003E03EC016FE071E00E94D802892B39F0D9
:100100000E94AD020E94B102892B89F00DC062E10C
:1001100071E0CE010E94D802892B61F00E94AF02EB
:100120000E94B102892B19F467E071E013C06AE004
:1001300071E010C063E271E0CE010E94D802892B09
:1001400079F00E94B102892B19F462E171E002C0DA
:100150006FE071E086E191E0DF91CF910C9455035F
:10016000DF91CF9108950F931F93CF93DF93CDB776
:10017000DEB72E970FB6F894DEBF0FBECDBF8C0151
:100180000E94EE02892B09F445C08EE291E00E94A4
:10019000BA02892B61F00E94AD020E94B102892B44
:1001A00009F448C081E391E00E946E0243C082E4FA
:1001B00091E00E94BA02892B39F00E94AF020E949E
:1001C000B102892BB9F5EECF85E491E00E94BA0225
:1001D000892B81F10E94B102892B19F48AE291E006
:1001E00002C08CE291E09F938F9388E491E09F930B
:1001F0008F938E010F5F1F4F1F930F930E947A04FE
:10020000C8010E946E020F900F900F900F900F90F8
:100210000F9010C0C8010E94FA02892B19F00E94A9
:10022000290308C0B801CE0101960E940603898106
:100230000E940B032E960FB6F894DEBF0FBECDBF03
:10024000DF91CF911F910F9108951F920F920FB6DA
:100250000F9211248F939F9381E090E09093B702C7
:100260008093B6029F918F910F900FBE0F901F90B9
:10027000189523982B9A24982C9A25982D9A529861
:100280005A9A54985C9A55985D9A56985E9A5798DF
:100290005F9A3898409A3998419A3A98429A3B988E
:1002A000439A209A539A229A5B9A2A980895009723
:1002B00041F0E6E6FEE03197F1F70000A8950197DE
:1002C000F6CF0895289A84E690E00E945701289876
:1002D000089514BE99E288E10FB6F894A89580932A
:1002E00060000FBE90936000089585E080938100C8
:1002F000EFE6F0E0808181608083109285001092AB
:10030000840008951092C5008FE58093C400109278
:10031000C000E2ECF0E080818660808388E9809311
:10032000C10010927F0310927E031092B9021092C6
:10033000B802089590917F0380917E0389270895E4
:100340000E949A018823E1F390917E03E92FF0E067
:10035000E058FC4F80819F5F943C08F090E09093C0
:100360007E039091C10090689093C10008951F9200
:100370000F920FB60F9211248F939F93EF93FF93D9
:10038000E0917F0381E08E0F843C08F080E0909143
:100390007E03891306C08091C1008F778093C100CE
:1003A00008C09091C600F0E0E058FC4F9083809325
:1003B0007F03FF91EF919F918F910F900FBE0F9050
:1003C0001F9018951F920F920FB60F9211248F93C2
:1003D000EF93FF93E091B8028091B9028E1306C0AB
:1003E0008091C1008F7D8093C1000EC0F0E0E65483
:1003F000FD4F80818093C6008091B8028F5F843C5E
:1004000008F080E08093B802FF91EF918F910F90F8
:100410000FBE0F901F9018958091B9028F5F843C9A
:1004200008F080E09091B80289270895E091B90220
:1004300091E09E0F943C08F090E0F0E0E654FD4F10
:1004400080838091B8029817E1F39093B90280916C
:10045000C10080628093C100089584ECEAEBF2E071
:10046000DF011D928A95E9F71092B90208950F9362
:100470001F93CF93DF9300D0CDB7DEB789839A83E4
:100480000E942D028981082F9A81192FF8018191EC
:100490008F01882319F00E941602F8CF0F900F9059
:1004A000DF91CF911F910F910895E6E6FEE031971D
:1004B000F1F700000197C9F708950E94820178942E
:1004C0008CE291E00C94550284ECE0E8F3E0DF016B
:1004D0001D928A95E9F710927F0308950C943702D4
:1004E0002A9A84EC99E00E9457012A9808950E9464
:1004F000700288E893E10E9457018CE591E00E9428
:10050000370280E293E00E94570180E691E00E946A
:10051000370280E293E00E94570186E691E00E9454
:10052000370280E293E00E94570183E791E00E9446
:10053000370280E293E00E9457018EE791E00E942B
:10054000370280E293E00E94570181E991E00E9426
:10055000370280E293E00C9457015B9808955B9A10
:1005600008958BB186958695869591E0892781704F
:1005700090E00895CF93DF93EC010E942603BE0123
:100580000E94570421E030E0892B11F020E030E098
:10059000C901DF91CF9108956CE971E00E94600478
:1005A00021E030E0892B11F420E030E0C90108950A
:1005B0000E94600421E030E0892B11F420E030E05B
:1005C000C901089561EA71E00E94600421E030E011
:1005D000892B11F420E030E0C901089568EA71E048
:1005E0000E94600421E030E0892B11F420E030E02B
:1005F000C901089561EB71E00E94600421E030E0E0
:10060000892B11F420E030E0C9010895FB01218518
:10061000FC01208308952091440430914504223048
:10062000310524F0109245041092440420914404B2
:1006300030914504A9014F5F5F4F509345044093AB
:100640004404F901EA5BFB4F8083089586E494E05B
:100650000895109245041092440410924704109299
:10066000460408956AEB71E00E94600421E030E0E6
:10067000892B11F420E030E0C901089520E4E8E47A
:10068000F4E0DF011D922A95E9F76AEB71E00E9420
:100690006004FC0134969FE3A8E4B4E001900D925D
:1006A0009A95E1F788E494E008950F931F93CF9310
:1006B000DF93CDB7DEB76E970FB6F894DEBF0FBEEF
:1006C000CDBF182F092F8FEB91E06D8F7E8F0E9489
:1006D0006E0280E293E00E9457018FEC91E00E944D
:1006E0006E0280E293E00E9457010F931F938BEDFF
:1006F00091E09F938F938E010F5F1F4F1F930F9376
:100700000E947A04C8010E946E0280E293E00E9477
:1007100057011F928AE18F937E8D7F936D8D6F932A
:100720008AEE91E09F938F93075E1F4F1F930F9365
:100730000E947A04C8010E946E0280E293E00E9447
:1007400057010FB6F894DEBF0FBECDBF6E960FB641
:10075000F894DEBF0FBECDBFDF91CF911F910F91F7
:1007600008950E9439010E9475010E9469010E944A
:100770005D020E94770280EFE82E81E0F82E94EC73
:10078000D92E06E010E0A8951092B5021092B4029E
:100790008091B6029091B702892B81F080916F0011
:1007A0008E7F80936F001092B7021092B6020E9463
:1007B000530080916F00816080936F000E949A01C6
:1007C000882309F388EC90E00E945701F7018D2DF2
:1007D00011928A95E9F7C091B402D091B502CE0189
:1007E00001969093B5028093B4020E94A001C0517B
:1007F000DE4F88830E949A018111EDCF8091B4026F
:100800009091B502892B09F4BECF80EF91E00E9450
:100810003203892B51F080916F008E7F80936F009F
:1008200080EF91E00E9475003AC080EF91E00E9455
:10083000E202892B61F080916F008E7F80936F00C0
:100840000E94620180EF91E00E94B30028C080EF17
:1008500091E00E94CC02892B51F080916F008E7F35
:1008600080936F0086E591E00E946E0218C067E0F9
:1008700071E080EF91E00E94D802892B09F483CFC8
:1008800080916F008E7F80936F000E9462011092B2
:10089000B7021092B60210930101009300010E946A
:1008A000640280916F00816080936F006CCFFB01C8
:1008B000DC018D91019080190110D9F3990B0895F5
:1008C000FB0151915523A9F0BF01DC014D91451762
:1008D0004111E1F759F4CD010190002049F04D910B
:1008E00040154111C9F3FB014111EFCF81E090E0C8
:1008F00001970895AEE0B0E0E0E8F4E00C94290739
:100900000D891E8986E08C831A8309838FEF9FE708
:100910009E838D83AE01475E5F4F6F89788DCE01D8
:1009200001960E949D042F813885020F131FF80144
:1009300010822E96E4E00C944507ABE0B0E0E3EAC9
:10094000F4E00C941B077C013B018A01FC01178237
:100950001682838181FFC8C1CE0101965C01F70137
:100960009381F30193FD859193FF81913F0188234A
:1009700009F453C1853239F493FD859193FF819138
:100980003F01853229F4B70190E00E948D06E7CF40
:10099000912C212C312CFFE1F31538F08B3211F121
:1009A00090F4803209F1833229F137FC3CC020ED0C
:1009B000280F2A3050F536FE20C08AE0989E200D80
:1009C0001124922E06C08D3291F0803371F7689415
:1009D00030F8F30193FD859193FF81913F018111DF
:1009E000DACF21C0689431F8689432F8F2CF689475
:1009F00033F8EFCF689434F8ECCFEAE02E9E200D68
:100A00001124222E689435F8E4CF8E3229F436FC76
:100A100004C1689436F8DDCF8C3619F4689437F841
:100A2000D8CF8836B1F2982F9F7D95549330E0F05F
:100A30008336A1F18337C1F1833509F063C0280102
:100A4000F2E04F0E511CF801C080D180692D70E09A
:100A500036FC02C06FEF7FEFC6010E9477064C01A3
:100A6000689437F882010AC00C5F1F4FFFE3F983D7
:100A700088248394912C6501E89437F833FE2DC0C7
:100A8000522C8114910471F5552009F468CFB701F7
:100A900080E290E00E948D065A94F6CFF8018081A2
:100AA00089830E5F1F4FE4CF2801F2E04F0E511CE7
:100AB000F801C080D180692D70E036FC02C06FEF74
:100AC0007FEFC6010E9482064C018201D5CFB7019B
:100AD00080E290E00E948D062A942814190409F0FF
:100AE000B0F7CECFF60137FC859137FE81916F01CB
:100AF000B70190E00E948D0651105A94F1E08F1AD0
:100B00009108BFCF843619F0893609F077C0F80113
:100B100037FE6BC060817181828193810C5F1F4FB2
:100B2000F32DFF763F2E97FF09C090958095709525
:100B300061957F4F8F4F9F4F689437F82AE030E0E0
:100B4000A5010E94BD06C82ECA188C2C432C36FE67
:100B50000CC0E89440F8C91440F434FE05C032FCDF
:100B600003C0F32DFE7E4F2E892C44FE95C0FE015E
:100B7000EC0DF11D8081803309F087C0242D297E82
:100B8000422E842D8870582E43FC95C040FE8FC0A5
:100B90009C2C821418F42C0C922C981844FE91C0B2
:100BA000B70180E390E00E948D0642FE09C088E70D
:100BB00090E041FE02C088E590E0B7010E948D06FA
:100BC000C91408F48AC0CA94D12C9FEFC91AD90A53
:100BD000CA0CDB1CF60182916F01B70190E00E9404
:100BE0008D06AC14BD04B1F74FCF60817181072E23
:100BF000000C880B990B0E5F1F4F92CFD32CE894FB
:100C0000D4F82AE030E0853739F1232D297FD22E20
:100C10008F3601F148F48835A9F0F7018681978174
:100C20002B96E2E10C943707803749F08837A9F713
:100C3000D4FE02C06894D2F820E130E00DC0689480
:100C4000D4F8F6CF34FE03C0822F8660D82E20E180
:100C500032E002C028E030E0F801D7FE0FC060812A
:100C60007181828193810C5F1F4FA5010E94BD0697
:100C7000C82ECA183D2CE89437F867CF608171817F
:100C800090E080E00E5F1F4FF0CF42FC02C08394E3
:100C900078CF8394839475CF842D867809F471CFAF
:100CA000F6CFB70180E290E00E948D068394821413
:100CB000C0F3512C73CF522C5818821408F46ECF05
:100CC000F8CF842D867809F47BCF8BE241FE80E259
:100CD00047FC8DE2B70190E071CFB70180E390E06F
:100CE0000E948D069A946CCF8FEF9FEF99CFFC01F5
:100CF0000590615070400110D8F7809590958E0F47
:100D00009F1F0895FC016150704001900110D8F7B9
:100D1000809590958E0F9F1F08950F931F93CF93EB
:100D2000DF93182F092FEB018B8181FD09C01FEF85
:100D30000FEF812F902FDF91CF911F910F91089589
:100D400082FF14C02E813F818C819D812817390735
:100D50003CF4E881F981CF0101969983888310835F
:100D60008E819F8101969F838E83E3CFE885F985ED
:100D7000812F0995892BA1F3DACFFA01AA27283010
:100D800051F1203181F1E8946F936E7F6E5F7F4F58
:100D90008F4F9F4FAF4FB1E03ED0B4E03CD0670FD4
:100DA000781F891F9A1FA11D680F791F8A1F911D27
:100DB000A11D6A0F711D811D911DA11D20D009F477
:100DC00068943F912AE0269F11243019305D3193B9
:100DD000DEF6CF010895462F4770405D4193B3E0A2
:100DE0000FD0C9F7F6CF462F4F70405D4A3318F049
:100DF000495D31FD4052419302D0A9F7EACFB4E0FA
:100E0000A6959795879577956795BA95C9F70097B1
:100E10006105710508959B01AC010A2E0694579552
:100E2000479537952795BA95C9F7620F731F841FA9
:100E3000951FA01D08952F923F924F925F926F923F
:100E40007F928F929F92AF92BF92CF92DF92EF925A
:100E5000FF920F931F93CF93DF93CDB7DEB7CA1BDB
:100E6000DB0B0FB6F894DEBF0FBECDBF09942A8806
:100E7000398848885F846E847D848C849B84AA84AE
:100E8000B984C884DF80EE80FD800C811B81AA813B
:100E9000B981CE0FD11D0FB6F894DEBF0FBECDBF06
:080EA000ED010895F894FFCF65
:100EA800060041540D0A004F4B004641494C004F83
:100EB8004E004F4646002B373938373533353939E8
:100EC80036390053544154555300322C32003031D6
:100ED8000041542B5654533D22322C322C32220DD1
:100EE8000A0030320030330041542B5654533D220F
:100EF8002573220D0A004154410D0A0041540D008A
:100F0800415445300D0041542B434D47443D312C4D
:100F1800340D0041542B434D47463D310D0041549B
:100F28002B434E4D493D312C322C302C302C300D7A
:100F38000041542B444445543D310D0052494E471D
:100F4800002B44544D463A002B44544D463A202336
:100F5800002B44544D463A202A00434D443A004160
:100F6800542B435343533D2247534D220D0A00410E
:100F7800542B434D47463D310D0A0041542B434DF8
:100F880047533D222573220D0A002573256300006F
:00000001FF
